:020000040000FA
:10000000D8170020F50000000701000009010000DA
:1000100000000000000000000000000000000000E0
:100020000000000000000000000000000B010000C4
:1000300000000000000000000D0100000F010000A2
:100040001101000011010000110100001101000068
:10005000110100000000000011010000110100006A
:100060001101000011010000110100001101000048
:100070001101000011010000110100001101000038
:100080001101000011010000110100001101000028
:100090001101000011010000110100001101000018
:1000A000110100001101000000000000000000002C
:1000B0000000000000000000000000000000000040
:1000C0000348854600F02CF800480047D50700009B
:1000D000D8170020401E00BF00BF00BF00BF00BFF8
:1000E00000BF00BF00BF00BF00BF00BF00BFF1D115
:1000F00070470000074802680F210A430260064863
:10010000804706480047FEE7FEE7FEE7FEE7FEE71A
:10011000FEE7000024050040DD050000C1000000EE
:10012000064C0125064E05E02046E36807C82B4330
:1001300098471034B442F7D3FFF7C6FFB408000065
:10014000C408000070B58D180478401CA207920FF7
:1001500001D10278401C231106D10378401C03E032
:100160000678401C0E70491C521EF9D1002B14D089
:1001700002780C26401C8A1A34400C2C01D0A401B1
:1001800002E00478401C2402121B9B1C03E014783C
:10019000521C0C70491C5B1EF9D5A942D4D3002017
:1001A00070BDF8B507460C4615461E462A2000F0DD
:1001B00053FA380A00F05FFA384600F05CFA200A79
:1001C00000F059FA204600F056FA2B2000F044FACD
:1001D000280A00F050FA284600F04DFA300A00F0E4
:1001E0004AFA304600F047FA2C2000F035FAF8BD04
:1001F00070B504469F2300227F211046FFF7D1FFF0
:100200000F2000F047FB0B2000F04CFB00250CE01A
:10021000002607E02104080E00F0C5F9E0B200F066
:10022000C2F9761C802EF5D36D1CA02DF0D30F20C3
:1002300000F038FB70BDFFB581B004460D46164690
:100240001F463F2D00D93F258A2E00D9163E0A9B16
:100250002104080F00933B463246294600F026F859
:100260000A9B2105080F00933B4632462946103170
:1002700000F01CF80A9B2106080F00933B4632460B
:100280002946203100F012F80A9B2007000F009346
:100290003B4632462946303100F008F89F230022C1
:1002A0007F211046FFF77DFF05B0F0BDFFB583B09D
:1002B00004460F46059B143339460F313846059ADC
:1002C000FFF76FFF26465F2E00D95F262A204643A0
:1002D000134DAD19002002901DE028786D1C009090
:1002E0000020019010E00199009888408021084288
:1002F00003D0069800F0CEF902E00C9800F0CAF99D
:100300000198401CC0B2019001980828EBDB0298CC
:10031000401CC0B2029002982A28DEDB07B0F0BD74
:1003200000000020FFB583B004460D4616461F4668
:1003300014E02078641C00F067F902900C9B009395
:100340003B4632462946FFF7B1FF6F2D02D9002503
:10035000153600E010358A2E00D9002620780028B6
:10036000E7D19F2300227F211046FFF71AFF07B035
:10037000F0BDFFB583B004460D4616461F463B460A
:10038000324629462046FFF70CFF02960EE0019404
:1003900005E00C9800F07EF90198401C0190691C62
:1003A00001988842F5D30298401C0290791C02986B
:1003B0008842ECD307B0F0BD10B50F2000F060FA12
:1003C0000B2000F05DFA0D2000F05AFA0A2000F030
:1003D00057FA0E2000F054FA10BD10B5642000F05A
:1003E00043FA0D2000F05EFA642000F03DFA0D2083
:1003F00000F050FA642000F037FA0D2000F052FAB5
:10040000642000F031FA112000F026F90A2000F0F3
:100410002BFA262000F020F9042000F02CF9B1205E
:1004200000F01AF90B2000F026F9142000F023F94F
:10043000C02000F011F90C2000F01DF9052000F09B
:100440001AF9C12000F008F9022000F014F9C520C3
:1004500000F002F93F2000F00EF9482000F00BF9FF
:10046000C72000F0F9F8C22000F005F92A2000F0BA
:10047000F3F8002000F0FFF8002000F0FCF8002066
:1004800000F0F9F87F2000F0F6F82B2000F0E4F8F7
:10049000002000F0F0F8002000F0EDF8002000F05F
:1004A000EAF89F2000F0E7F83A2000F0D5F8552050
:1004B00000F0E1F8362000F0CFF8C82000F0DBF8BB
:1004C000F22000F0C9F8012000F0D5F8E02000F09B
:1004D000C3F83F2000F0CFF8252000F0CCF8212011
:1004E00000F0C9F8242000F0C6F81D2000F0C3F881
:1004F0000D2000F0C0F84C2000F0BDF8B82000F04E
:10050000BAF8382000F0B7F8172000F0B4F80F2040
:1005100000F0B1F8082000F0AEF8042000F0ABF8CD
:10052000022000F0A8F8002000F0A5F8E12000F07B
:1005300093F8002000F09FF81A2000F09CF81E208D
:1005400000F099F80B2000F096F8122000F093F8D4
:10055000122000F090F8332000F08DF8472000F0D2
:100560008AF8472000F087F8082000F084F820205F
:1005700000F081F8272000F07EF83C2000F07BF8A6
:100580003D2000F078F83F2000F075F8362000F0AC
:1005900063F8C02000F06FF8292000F05DF82C20EF
:1005A00000F05AF810BD70B50446002513E0802015
:1005B000044203D00E2000F075F902E00E2000F096
:1005C00069F96006040E0A2000F064F90A2000F0C0
:1005D00069F9681CC5B2082DE9DB70BD0648806A60
:1005E0000006000F012805D1044805494860C813DA
:1005F0000449886170470000C00F00F0DFFF07C0AA
:1006000000050040006C0040202801DA5F2022E055
:10061000202805DB2F2803DC01462831C8B21AE068
:10062000302805DB392803DC01463039C8B212E036
:100630003A2805DB402803DC01461E31C8B20AE037
:10064000412805DB7E2803DC01463739C8B202E0C9
:100650007E2800DD5F20704710B504460F2000F0B3
:1006600019F90B2000F016F9E0B2FFF79CFF0F20FC
:1006700000F018F910BD10B504460F2000F00AF97B
:100680000B2000F00FF9E0B2FFF78DFF0F2000F014
:1006900009F910BD10B504460F2000F0FBF80B203F
:1006A00000F000F92104080EFFF77DFFE0B2FFF72C
:1006B0007AFF0F2000F0F6F810BD02E008C8121F04
:1006C00008C1002AFAD170477047002001E001C13B
:1006D000121F002AFBD17047F8B504463C48007D44
:1006E000012873D1002C02D13948C06801E0384894
:1006F0000069002806D0012817D0022828D0032836
:100700004CD138E0002C02D13F235B0100E01F23D5
:100710002F4D00936D682E4EB668AA1B2C4D6B684A
:1007200029682868FFF725FE39E0002C02D13F2315
:100730005B0100E01F23264D00936D68244EB668D0
:10074000AB19234D6A6829682868FFF712FE26E076
:10075000002C02D13F235B0100E01F231C4D0093BE
:100760002D681B4EB668A81B194D6B686A6829680E
:10077000FFF7FFFD13E0002C02D13F235B0100E0F7
:100780001F23134D00932D68114EB668A919104D03
:100790006B686A682868FFF7ECFD00E000BF00BFE7
:1007A000002C10D100230A4D00936D68AB1C084D3E
:1007B0006D68AA1E064D2D68A91C054D2D68A81E42
:1007C000FFF7D7FD02E00020FFF786FFF8BD00002D
:1007D000C00F002008B54020204908606E20486006
:1007E0000020C86008611420886001200875FFF7A8
:1007F000E3FDFFF7F2FD1F20FFF7FAFC002005469E
:1008000007460446012627E06D1C1448C0681349BA
:100810000861A807800FC8601F230093DB02A02295
:1008200020212846FFF707FD1F23009300233A46A7
:1008300021460BA0FFF776FD0120FFF74DFF34198D
:100840007000C719202C01D30026F643002C00D1DC
:100850000126642000F008F8D6E70000C00F002051
:10086000582D43415345000010B5044603E0641E73
:100870000248FFF72FFC002CF9D110BDE703000060
:1008800001210522120707231B02D2188300D15031
:100890007047000001218140014AD160704700008B
:1008A0000005005001218140014A9160704700001D
:1008B00000050050C408000000000020C00F000028
:1008C00044010000520001C0091F003180318060E6
:1008D000C0022114C31F0001100406001E040112EF
:1008E00002C31F802A50043F00615210060180019C
:1008F00080033A10060C0018003064C37FC02A1031
:10090000043E00632C32612630080F00018000C0D5
:10091000008AB00461803F7C11201380070210041C
:100920000F801B0210043380630210043FC00316C3
:10093000D00503800FE07E4004C03000020007169F
:100940003F00398030C054100800000F8018C030BC
:100950002E740660007F007104031030C0FC127F0B
:1009600092236300CA21CC21CE8102C1D2255065D9
:1009700044810C02116054211E82612013C01FA803
:10098000120112166316E57A120E0230040F001BD4
:1009900002640531803F80B4D2F1FC167FCE11D2C3
:1009A00031C450073F0031C0306002D7C07FA4205F
:1009B000050FE018E01A93600002111000051538C9
:1009C000C00F80549260023162F67F263126395280
:1009D00041A43588217E0223C02A15B4E678A433C9
:1009E000C019D061A42761E0A2F00430C018A84368
:1009F00079E0FA212E723F0A213CFA79220914C8C3
:100A000012061AD5262AF0C2011202E5A8127B7E30
:100A100018083180330036003CD61004360033020B
:100A20003502F17E5A789ED1020511262005F0F09C
:100A300070E00232790230047B606F02126602E3DA
:100A4000F6F0FC300438C03C023236021233023277
:100A50003102E278D213001994D26001E40630C06A
:100A600019800FCE7680F4A004C03F80ACF5A401BD
:100A7000115418066E603BC03B4C08051601E0019E
:100A8000C0A0A526D678A4121FBC3D4404152E3C58
:100A9000041C00071C0429F2FA7176273FC0120DCE
:100AA000129804E1D2A922A1020110FC27F1F0144E
:100AB000411C4102160F3A3E0F0005C12A27FFF0E4
:100AC0009015941BC037766102413401107E614A53
:100AD000419E258C0A111922612A721B740116D2BB
:100AE0001A3F762D66057E039C042D9A04E94C2F4F
:100AF0000FC0B404011A02760FA4299C4DDA042118
:100B0000344D2803215E4D08032D4C054D16040E6F
:100B1000157E0C068D4C035E7E6206121E02034695
:100B20003300013EFFF204F61C8801243E4DEE0620
:100B30001C040F803968051DC203DFE03F9C037A67
:100B400070E49C043F8038F2041E380203011A54FA
:100B50001DF0064D42050D11E8053E0182062D8669
:100B60000679D44DF20500041AE01FC0542D2E075B
:100B7000011654440503C00660BAC77F80CA011934
:100B8000A84804F030F0F21E1F98051DD2038C0611
:100B9000E060607060F204D1FC0D1940052D8E06F6
:100BA00065DC0D1C0A082DA20741340E110744050F
:100BB0009E334205857A1DBC045D46052D1C040D3F
:100BC00010BE050F263E00BE05A9364E77A603517E
:100BD000020B16FFF060021D7FFC0D12EA070D14D8
:100BE000E007D154B94C0D124605BDF6049D14081A
:100BF0001D16080111849C067BE01E601C88080AF3
:100C0000187FF41D0A062C0430C038600921080939
:100C100013CA693C994A080517C00CC0074CB67145
:100C200024091ACA6DCC048DF8040517A42D4A05B1
:100C3000AEE04205011C542D46054D7A060518A468
:100C4000DE7B74052D8A0A0404133C0038F87C040A
:100C5000630066AA0AAF618030092F01C060056198
:100C6000021E071A059207103D1E051D16050227D4
:100C7000060229C6BE388005120E58DE0E940521E4
:100C8000A6000A4F3C007630637001E00001720E4E
:100C900002E19A8DDE03393E3F801FAA070E236CC6
:100CA00060051E189809400518C07FE0082DA60AA7
:100CB0002F7FE0E4092D7605CD4C0C1C040F801E1F
:100CC000AC081C0437C0362006160E5420060780D8
:100CD00006C03E121D360BCD6607200938C06D8058
:100CE0006D806F0002300A3E0007C00F600F601B6E
:100CF00002DE314E0C2D680621021E3614089C10AF
:100D000039807980CF00CF00C700C60067603D847E
:100D1000081E7882091D2407062100555F60005CCB
:100D200007B603C255F42D0E076260295E30320704
:100D3000BE0CB00745CA216EDE60D20B2C0906003E
:100D400066607FE01F803E0D4F7FE0C0080512A85F
:100D50008D5007C77FE0A80D243007011CEE0A3331
:100D60007F5A1E70AE05C5261DA4045DEC0DCD2472
:100D70000D3E38300A0A156080011A10CD9E040D10
:100D800012AE0471169EC0640E758A6606A2011B1F
:100D9000F8051600E146C1620D10AA07127002356F
:100DA000066A802A0112D22F0F80CC0C3C0637E055
:100DB0006FE06DD00B11021FC06F080D8DCC0C02BF
:040DC00027FF010008
:04000005000000C136
:00000001FF
