:020000040000FA
:10000000E8170020F50000000701000009010000CA
:1000100000000000000000000000000000000000E0
:100020000000000000000000000000000B010000C4
:1000300000000000000000000D0100000F010000A2
:100040001101000011010000110100001101000068
:10005000110100000000000011010000110100006A
:100060001101000011010000110100001101000048
:100070001101000011010000110100001101000038
:100080001101000011010000110100001101000028
:100090001101000011010000110100001101000018
:1000A000110100001101000000000000000000002C
:1000B0000000000000000000000000000000000040
:1000C0000348854600F02CF800480047C9090000A5
:1000D000E8170020401E00BF00BF00BF00BF00BFE8
:1000E00000BF00BF00BF00BF00BF00BF00BFF1D115
:1000F00070470000074802680F210A430260064863
:10010000804706480047FEE7FEE7FEE7FEE7FEE71A
:10011000FEE7000024050040D1070000C1000000F8
:10012000064C0125064E05E02046E36807C82B4330
:1001300098471034B442F7D3FFF7C6FFE40A000033
:10014000F40A000070B58D180478401CA207920FC5
:1001500001D10278401C231106D10378401C03E032
:100160000678401C0E70491C521EF9D1002B14D089
:1001700002780C26401C8A1A34400C2C03D0A401AF
:10018000121B9B1C07E00478401C2402F8E714783B
:10019000521C0C70491C5B1EF9D5A942D4D3002017
:1001A00070BDF8B507460C4615461E462A2000F0DD
:1001B0004DFB380A00F059FB384600F056FB200A88
:1001C00000F053FB204600F050FB2B2000F03EFBDC
:1001D000280A00F04AFB284600F047FB300A00F0EE
:1001E00044FB304600F041FB2C2000F02FFBF8BD13
:1001F00070B504469F2300227F211046FFF7D1FFF0
:100200000F2000F04FFC0B2000F05CFC00250CE000
:10021000002607E02104080E00F0BEF9E0B200F06D
:10022000BBF9761C802EF5D36D1CA02DF0D30F20CA
:1002300000F048FC70BDFFB581B004460D4617467E
:100240000A9E3F2D00D93F258A2F00D9163F210451
:10025000080F00963A462946049B00F023F8210532
:10026000080F00963A4629461031049B00F01AF810
:100270002106080F00963A4629462031049B00F0DB
:1002800011F82007000F00963A4629463031049BAA
:1002900000F008F89F2300227F211046FFF781FF1E
:1002A00005B0F0BDFFB583B004460D46059B143381
:1002B00029460F312846059AFFF773FF27465F2F1F
:1002C00000D95F272A204743134EF61900200290D9
:1002D0001DE03078761C00900020019010E001991C
:1002E000009888408021084203D0069800F0CCFA9C
:1002F00002E00C9800F0C8FA0198401CC0B20190CE
:1003000001980828EBDB0298401CC0B202900298CA
:100310002A28DEDB07B0F0BD00000020FEB5044651
:100320000D4616461F4615E02078641C00F066FA5C
:10033000019008983B463246294600900198FFF705
:10034000B1FF6F2D02D90025153600E010358A2E39
:1003500000D9002620780028E6D19F2300227F21A3
:100360001046FFF71EFFFEBDFEB504460D461646BD
:100370001F463B46324629462046FFF712FF0196AC
:100380000EE0009405E0089800F07EFA0098401C0A
:100390000090691C00988842F5D30198401C019098
:1003A000791C01988842ECD3FEBD10B50F2000F0F7
:1003B00067FB0B2000F064FB0D2000F061FB0A20BE
:1003C00000F05EFB0E2000F05BFB10BD10B564205A
:1003D00000F048FB0D2000F075FB642000F042FBAC
:1003E0000D2000F05FFB642000F03CFB0D2000F0CE
:1003F00069FB642000F036FB112000F027FA0A2088
:1004000000F030FB262000F021FA042000F02DFA45
:10041000B12000F01BFA0B2000F027FA142000F0A6
:1004200024FAC02000F012FA0C2000F01EFA052079
:1004300000F01BFAC12000F009FA022000F015FAC2
:10044000C52000F003FA3F2000F00FFA482000F02A
:100450000CFAC72000F0FAF9C22000F006FA2A20B0
:1004600000F0F4F9002000F000FA002000F0FDF99F
:10047000002000F0FAF97F2000F0F7F92B2000F0BF
:10048000E5F9002000F0F1F9002000F0EEF900207D
:1004900000F0EBF99F2000F0E8F93A2000F0D6F9DF
:1004A000552000F0E2F9362000F0D0F9C82000F025
:1004B000DCF9F22000F0CAF9012000F0D6F9E020C2
:1004C00000F0C4F93F2000F0D0F9252000F0CDF96C
:1004D000212000F0CAF9242000F0C7F91D2000F007
:1004E000C4F90D2000F0C1F94C2000F0BEF9B8208D
:1004F00000F0BBF9382000F0B8F9172000F0B5F98A
:100500000F2000F0B2F9082000F0AFF9042000F04D
:10051000ACF9022000F0A9F9002000F0A6F9E120D2
:1005200000F094F9002000F0A0F91A2000F09DF9E5
:100530001E2000F09AF90B2000F097F9122000F02D
:1005400094F9122000F091F9332000F08EF9472041
:1005500000F08BF9472000F088F9082000F085F9B9
:10056000202000F082F9272000F07FF93C2000F0E5
:100570007CF93D2000F079F93F2000F076F9362033
:1005800000F064F9C02000F070F9292000F05EF955
:100590002C2000F05BF910BD70B50446002513E077
:1005A0008020044203D00E2000F08CFA02E00E20DE
:1005B00000F078FA6006040E0A2000F073FA0A20B0
:1005C00000F080FA681CC5B2082DE9DB70BD0000A0
:1005D00070B500250024192000F07CFA00BF16E059
:1005E0006006040E192000F075FA1D200B490969F8
:1005F000C140C907C90F002902D00120044301E00E
:10060000FE200440192000F055FA681CC5B2082DE0
:10061000E6DB192000F05EFA204670BD00050050B0
:10062000FFB581B005460E461746002000901C20FD
:1006300000F040FA032000F01BF86846067047708F
:100640000021817000F039F8002403E0FFF7C0FFBB
:100650002855641C04988442F8D31C2000F03AFA10
:1006600005B0F0BD10B5012000F0FCF9002010BD70
:1006700070B504460025192000F01CFA00BF13E0F5
:10068000192000F017FA8020044203D0182000F04F
:1006900021FA02E0182000F00DFA6006040E19207D
:1006A00000F018FA681CC5B2082DE9DB192000F02B
:1006B00001FA182000F00EFA70BD70B5054600244E
:1006C00000BF03E0285DFFF7D3FF641C032CF9D3C0
:1006D000002070BDFFB581B005460E4617460020CC
:1006E000009000F01DF81C2000F0E4F90220FFF754
:1006F000BFFF68460670477000218170FFF7DDFF7D
:10070000002403E0285DFFF7B3FF641C04988442D3
:10071000F8D31C2000F0DEF9FFF7A4FF05B0F0BD10
:1007200010B51C2000F0C6F90620FFF7A1FF1C2021
:1007300000F0D0F910BD10B51C2000F0AAF9192066
:1007400000F0A7F9182000F0A4F91D2000218A006C
:1007500005231B07072424021B1984001A5100BF1C
:1007600010BD000010B5052403230722062116A0A2
:10077000FFF7B0FF642000F075F90323072206217C
:100780001248FFF74DFF114800784E2815D10F4849
:100790004078522811D10D48807846280DD11F206D
:1007A000C002FFF725FD642000F05CF90020FFF790
:1007B0001FFD642000F056F905E000BF3F20400116
:1007C000FFF716FDFAE710BD4E524600D80F002085
:1007D0000648008D0006000F012805D10448054990
:1007E0004860C8130449886170470000C00F00F0DA
:1007F000DFFF07C000050040006C0040202801DA40
:100800005F2022E0202805DB2F2803DC0146283169
:10081000C8B21AE0302805DB392803DC014630393C
:10082000C8B212E03A2805DB402803DC01461E313D
:10083000C8B20AE0412805DB7E2803DC01463739CF
:10084000C8B202E07E2800DD5F20704710B5044684
:100850000F2000F027F90B2000F024F9E0B2FFF799
:100860009BFE0F2000F02EF910BD10B504460F209E
:1008700000F018F90B2000F025F9E0B2FFF78CFE2C
:100880000F2000F01FF910BD10B504460F2000F036
:1008900009F90B2000F016F92104080EFFF77CFE81
:1008A000E0B2FFF779FE0F2000F00CF910BD02E076
:1008B00008C8121F08C1002AFAD1704770470020EB
:1008C00001E001C1121F002AFBD17047F8B50446B0
:1008D0003C48007D012873D1002C02D13948C06802
:1008E00001E038480069002806D0012817D0022806
:1008F00028D003284CD138E0002C02D13F20400101
:1009000000E01F202F4D00906D682E4EB668AA1B88
:100910002C4D6B6829682868FFF726FD39E0002C0C
:1009200002D13F20400100E01F20264D00906D685D
:10093000244EB668AB19234D6A6829682868FFF70A
:1009400013FD26E0002C02D13F20400100E01F20D3
:100950001C4D00902D681B4EB668A81B194D6B6886
:100960006A682968FFF700FD13E0002C02D13F20E0
:10097000400100E01F20134D00902D68114EB66815
:10098000A919104D6B686A682868FFF7EDFC00E054
:1009900000BF00BF002C10D100200A4D00906D68F0
:1009A000AB1C084D6D68AA1E064D2D68A91C054D8F
:1009B0002D68A81EFFF7D8FC02E00020FFF786FF95
:1009C000F8BD0000C00F002008B540202349086092
:1009D0006E2048600020C8600861142088600120F3
:1009E0000875FFF7E2FCFFF7F1FCFFF7A4FE1F20FC
:1009F000FFF7FEFBFFF7B6FE00200546074604465C
:100A000001262AE06D1C1548C06814490861A80732
:100A1000800FC8601F20C302A0222021009028461A
:100A2000FFF709FC00200E49C8701F2000233A463A
:100A3000214600900A48FFF771FC0120FFF746FFAE
:100A400034197000C719202C01D30026F643002C5E
:100A500000D10126642000F005F8D3E7C00F002084
:100A6000D80F002001B505E00098401E0090034813
:100A7000FFF730FB00980028F6D108BDE70300001F
:100A800001210522120707231B02D2188300D1502F
:100A9000704701210522120707231B02D218830089
:100AA000D150704701218140014AD1607047000058
:100AB0000005005001218140014AD16070470000CB
:100AC0000005005001218140014A916070470000FB
:100AD0000005005001218140014A916070470000EB
:100AE00000050050F40A000000000020C00F0000C4
:100AF00044010000520001C0091F003180318060B4
:100B0000C0022114C31F0001100406001E040112BC
:100B100002C31F802A50043F006152100601800169
:100B200080033A10060C0018003064C37FC02A10FE
:100B3000043E00632C32612630080F00018000C0A3
:100B4000008AB00461803F7C1120138007021004EA
:100B50000F801B0210043380630210043FC0031691
:100B6000D00503800FE07E4004C03000020007166D
:100B70003F00398030C054100800000F8018C0308A
:100B80002E740660007F007104031030C0FC127FD9
:100B900092236300CA21CC21CE8102C1D2255065A7
:100BA00044810C02116054211E82612013C01FA8D1
:100BB000120112166316E57A120E0230040F001BA2
:100BC00002640531803F80B4D2F1FC167FCE11D291
:100BD00031C450073F0031C0306002D7C07FA4202D
:100BE000050FE018E01A9360000211100005153897
:100BF000C00F80549260023162F67F26312639524E
:100C000041A43588217E0223C02A15B4E678A43396
:100C1000C019D061A42761E0A2F00430C018A84335
:100C200079E0FA212E723F0A213CFA79220914C890
:100C300012061AD5262AF0C2011202E5A8127B7EFE
:100C400018083180330036003CD6100436003302D9
:100C50003502F17E5A789ED1020511262005F0F06A
:100C600070E00232790230047B606F02126602E3A8
:100C7000F6F0FC300438C03C023236021233023245
:100C80003102E278D213001994D26001E40630C038
:100C900019800FCE7680F4A004C03F80ACF5A4018B
:100CA000115418066E603BC03B4C08051601E0016C
:100CB000C0A0A526D678A4121FBC3D4404152E3C26
:100CC000041C00071C0429F2FA7176273FC0120D9C
:100CD000129804E1D2A922A1020110FC27F1F0141C
:100CE000411C4102160F3A3E0F0005C12A27FFF0B2
:100CF0009015941BC037766102413401107E614A21
:100D0000419E258C0A111922612A721B740116D288
:100D10001A3F762D66057E039C042D9A04E94C2F1C
:100D20000FC0B404011A02760FA4299C4DDA0421E5
:100D3000344D2803215E4D08032D4C054D16040E3D
:100D4000157E0C068D4C035E7E6206121E02034663
:100D50003300013EFFF204F61C8801243E4DEE06EE
:100D60001C040F803968051DC203DFE03F9C037A35
:100D700070E49C043F8038F2041E380203011A54C8
:100D80001DF0064D42050D11E8053E0182062D8637
:100D90000679D44DF20500041AE01FC0542D2E0729
:100DA000011654440503C00660BAC77F80CA011902
:100DB000A84804F030F0F21E1F98051DD2038C06DF
:100DC000E060607060F204D1FC0D1940052D8E06C4
:100DD00065DC0D1C0A082DA20741340E11074405DD
:100DE0009E334205857A1DBC045D46052D1C040D0D
:100DF00010BE050F263E00BE05A9364E77A603514C
:100E0000020B16FFF060021D7FFC0D12EA070D14A5
:100E1000E007D154B94C0D124605BDF6049D1408E7
:100E20001D16080111849C067BE01E601C88080AC0
:100E3000187FF41D0A062C0430C038600921080907
:100E400013CA693C994A080517C00CC0074CB67113
:100E500024091ACA6DCC048DF8040517A42D4A057F
:100E6000AEE04205011C542D46054D7A060518A436
:100E7000DE7B74052D8A0A0404133C0038F87C04D8
:100E8000630066AA0AAF618030092F01C060056166
:100E9000021E071A059207103D1E051D16050227A2
:100EA000060229C6BE388005120E58DE0E940521B2
:100EB000A6000A4F3C007630637001E00001720E1C
:100EC00002E19A8DDE03393E3F801FAA070E236C94
:100ED00060051E189809400518C07FE0082DA60A75
:100EE0002F7FE0E4092D7605CD4C0C1C040F801EED
:100EF000AC081C0437C0362006160E5420060780A6
:100F000006C03E121D360BCD6607200938C06D8025
:100F10006D806F0002300A3E0007C00F600F601B3B
:100F200002DE314E0C2D680621021E3614089C107C
:100F300039807980CF00CF00C700C60067603D844C
:100F4000081E7882091D2407062100555F60005C99
:100F500007B603C255F42D0E076260295E303207D2
:100F6000BE0CB00745CA216EDE60D20B2C0906000C
:100F700066607FE01F803E0D4F7FE0C0080512A82D
:100F80008D5007C77FE0A80D243007011CEE0A33FF
:100F90007F5A1E70AE05C5261DA4045DEC0DCD2440
:100FA0000D3E38300A0A156080011A10CD9E040DDE
:100FB00012AE0471169EC0640E758A6606A2011BED
:100FC000F8051600E146C1620D10AA07127002353D
:100FD000066A802A0112D22F0F80CC0C3C0637E023
:100FE0006FE06DD00B11021FC06F080D8DCC0C028D
:040FF00027FF0100D6
:04000005000000C136
:00000001FF
